:100000000C9434000C9451000C9451000C94510049
:100010000C94B1000C9451000C9451000C945100BC
:100020000C9451000C9451000C9451000C9451000C
:100030000C9451000C9451000C9451000C945100FC
:100040000C9451000C9451000C9453000C945100EA
:100050000C9451000C9451000C9451000C945100DC
:100060000C9451000C94510011241FBECFEFD4E02A
:10007000DEBFCDBF11E0A0E0B1E0E2E9F3E002C0F5
:1000800005900D92A430B107D9F721E0A4E0B1E0CA
:1000900001C01D92AC32B207E1F70E941E010C9420
:1000A000C7010C9400001F920F920FB60F921124FB
:1000B0008F939F93EF93FF939091C60080910401DB
:1000C000811114C09D3021F0809109018F3121F4FC
:1000D00081E0809304010AC0983041F0E82FF0E0FD
:1000E000EC5FFE4F90878F5F80930901FF91EF9146
:1000F0009F918F910F900FBE0F901F9018955D9854
:1001000082E08A95F1F700C086B1982F9095292F4B
:10011000217030E081FF286082FF206483FF32601D
:100120005D9A5E9882E08A95F1F700C086B180FF03
:10013000226081FF206182FF206883FF34605E9A25
:100140005F9882E08A95F1F700C086B180FF246055
:1001500081FF206282FF316083FF38605F9AC901AE
:1001600008951F920F920FB60F9211240F900FBE99
:100170000F901F9018958AB1806E8AB98BB18F71DC
:100180008BB987B1807F87B988B18F6088B9E8E67D
:10019000F0E0808182608083ECE6F0E080818F6017
:1001A000808378940895219A83E88093800081E089
:1001B000809381001092890010928800089588230E
:1001C000A9F08130C1F580918100887F8093810002
:1001D000809181008360809381008FE590E090930F
:1001E0008900809388005A9A5B9812C080918100A0
:1001F000887F80938100809181008360809381005B
:1002000080E190E090938900809388005A985B9AEF
:100210002FEF83ED90E3215080409040E1F700C044
:10022000000080918100887F80938100809181000F
:100230008093810008955B9A5A9A08950E94BB00AA
:100240000E94D3008AB18C608AB987EE80936400E3
:100250008DE083BF80E00E94DF0010E000E08BB102
:100260008F718BB95B985A988FE19EE40197F1F7F3
:1002700000C0000088950E947F00EC0185E0F82E08
:100280000E947F008C179D0721F0EC01CD2B39F3E4
:1002900003C0FA94A9F7FACF8032910569F180F48E
:1002A0008430910519F130F481309105E9F002971D
:1002B00081F532C088309105D9F0409751F51AC0C8
:1002C000811521E09207F1F038F480349105B1F006
:1002D00080389105F1F414C0811524E09207A1F053
:1002E00081159840B1F412C081E017C083E015C0B9
:1002F00084E013C085E011C086E00FC087E00DC028
:1003000088E00BC089E009C080E007C010E08CE005
:1003100004C010E08FEF01C082E0E12FF0E0E05078
:10032000FF4F9081891304C01F5F143091F01CC0EF
:10033000863031F18C3031F5013031F580E00E94AA
:10034000DF00143081F481E00E94DF0010E001E062
:100350000BC0013029F480E00E94DF0010E003C0F0
:10036000002389F30FC000E05B9A8FEF90E722E053
:10037000815090402040E1F700C000005B986FCFB3
:1003800011E0F2CF10E0F0CF143051F3EDCFF8943C
:02039000FFCF9D
:040392000604020952
:00000001FF
